{
  "transactions": [
    {
      "hash": "0x2a9ca034fcb1b5a3085e1946ba60eb224a58f6ed573d7454ee1adedf924eeee4",
      "transactionType": "CALL",
      "contractName": null,
      "contractAddress": "0xA7c59f010700930003b33aB25a7a0679C860f29c",
      "function": "mint(address,uint256)",
      "arguments": [
        "0x8EB0Eb887B33b57e7A053D26eab4582C8C8875c7",
        "1"
      ],
      "transaction": {
        "type": "0x02",
        "from": "0xf39fd6e51aad88f6f4ce6ab8827279cfffb92266",
        "to": "0xa7c59f010700930003b33ab25a7a0679c860f29c",
        "gas": "0x3013f",
        "value": "0x0",
        "data": "0x40c10f190000000000000000000000008eb0eb887b33b57e7a053d26eab4582c8c8875c70000000000000000000000000000000000000000000000000000000000000001",
        "nonce": "0x74",
        "accessList": []
      },
      "additionalContracts": [],
      "isFixedGasLimit": false
    },
    {
      "hash": "0xf2687c3b1c6a9676f8f65bd5a63769acde4450ff692b3696549606a37244c4b1",
      "transactionType": "CALL",
      "contractName": null,
      "contractAddress": "0xA7c59f010700930003b33aB25a7a0679C860f29c",
      "function": "mint(address,uint256)",
      "arguments": [
        "0x8EB0Eb887B33b57e7A053D26eab4582C8C8875c7",
        "3"
      ],
      "transaction": {
        "type": "0x02",
        "from": "0xf39fd6e51aad88f6f4ce6ab8827279cfffb92266",
        "to": "0xa7c59f010700930003b33ab25a7a0679c860f29c",
        "gas": "0x31f76",
        "value": "0x0",
        "data": "0x40c10f190000000000000000000000008eb0eb887b33b57e7a053d26eab4582c8c8875c70000000000000000000000000000000000000000000000000000000000000003",
        "nonce": "0x75",
        "accessList": []
      },
      "additionalContracts": [],
      "isFixedGasLimit": false
    },
    {
      "hash": "0x147a1ee6bcf33ee64e0f17b2d07e98bcf2d6affb601ea1f0116dfccfe052f38d",
      "transactionType": "CALL",
      "contractName": null,
      "contractAddress": "0xA7c59f010700930003b33aB25a7a0679C860f29c",
      "function": "mint(address,uint256)",
      "arguments": [
        "0x8EB0Eb887B33b57e7A053D26eab4582C8C8875c7",
        "5"
      ],
      "transaction": {
        "type": "0x02",
        "from": "0xf39fd6e51aad88f6f4ce6ab8827279cfffb92266",
        "to": "0xa7c59f010700930003b33ab25a7a0679c860f29c",
        "gas": "0x31f76",
        "value": "0x0",
        "data": "0x40c10f190000000000000000000000008eb0eb887b33b57e7a053d26eab4582c8c8875c70000000000000000000000000000000000000000000000000000000000000005",
        "nonce": "0x76",
        "accessList": []
      },
      "additionalContracts": [],
      "isFixedGasLimit": false
    },
    {
      "hash": "0xeb568c3e36adc92e1a125de1fe256eaa8ff693d0731f496b497471511ddbffbf",
      "transactionType": "CALL",
      "contractName": null,
      "contractAddress": "0x22753E4264FDDc6181dc7cce468904A80a363E44",
      "function": "mint(address,uint256)",
      "arguments": [
        "0xfaAddC93baf78e89DCf37bA67943E1bE8F37Bb8c",
        "100000000000000000000"
      ],
      "transaction": {
        "type": "0x02",
        "from": "0xf39fd6e51aad88f6f4ce6ab8827279cfffb92266",
        "to": "0x22753e4264fddc6181dc7cce468904a80a363e44",
        "gas": "0x17d81",
        "value": "0x0",
        "data": "0x40c10f19000000000000000000000000faaddc93baf78e89dcf37ba67943e1be8f37bb8c0000000000000000000000000000000000000000000000056bc75e2d63100000",
        "nonce": "0x77",
        "accessList": []
      },
      "additionalContracts": [],
      "isFixedGasLimit": false
    },
    {
      "hash": "0x886e097e0e163c9cd0a74447a8562299cc2679d19077d4e6e250a2709d949807",
      "transactionType": "CALL",
      "contractName": null,
      "contractAddress": "0xfaAddC93baf78e89DCf37bA67943E1bE8F37Bb8c",
      "function": "setNftValue(address,uint256)",
      "arguments": [
        "0xA7c59f010700930003b33aB25a7a0679C860f29c",
        "300000000000000000000"
      ],
      "transaction": {
        "type": "0x02",
        "from": "0xf39fd6e51aad88f6f4ce6ab8827279cfffb92266",
        "to": "0xfaaddc93baf78e89dcf37ba67943e1be8f37bb8c",
        "gas": "0x1159b",
        "value": "0x0",
        "data": "0x7b288936000000000000000000000000a7c59f010700930003b33ab25a7a0679c860f29c00000000000000000000000000000000000000000000001043561a8829300000",
        "nonce": "0x78",
        "accessList": []
      },
      "additionalContracts": [],
      "isFixedGasLimit": false
    },
    {
      "hash": "0x00b28ac46b3eb197ad911edad9d1aa97e2f61fd156024bf4fdd913468e642005",
      "transactionType": "CALL",
      "contractName": null,
      "contractAddress": null,
      "function": null,
      "arguments": null,
      "transaction": {
        "type": "0x02",
        "from": "0xf39fd6e51aad88f6f4ce6ab8827279cfffb92266",
        "to": "0x8eb0eb887b33b57e7a053d26eab4582c8c8875c7",
        "gas": "0x714d",
        "value": "0x8ac7230489e80000",
        "data": "0x",
        "nonce": "0x79",
        "accessList": []
      },
      "additionalContracts": [],
      "isFixedGasLimit": false
    }
  ],
  "receipts": [
    {
      "transactionHash": "0x2a9ca034fcb1b5a3085e1946ba60eb224a58f6ed573d7454ee1adedf924eeee4",
      "transactionIndex": "0x0",
      "blockHash": "0x42a0c12f1a2e866071969eeaa20fc7ccd8d6b1d8bd7f8aecb4cb119ea24497c6",
      "blockNumber": "0x40104a",
      "from": "0xf39Fd6e51aad88F6F4ce6aB8827279cffFb92266",
      "to": "0xA7c59f010700930003b33aB25a7a0679C860f29c",
      "cumulativeGasUsed": "0x22ced",
      "gasUsed": "0x22ced",
      "contractAddress": null,
      "logs": [
        {
          "address": "0xA7c59f010700930003b33aB25a7a0679C860f29c",
          "topics": [
            "0xddf252ad1be2c89b69c2b068fc378daa952ba7f163c4a11628f55a4df523b3ef",
            "0x0000000000000000000000000000000000000000000000000000000000000000",
            "0x0000000000000000000000008eb0eb887b33b57e7a053d26eab4582c8c8875c7",
            "0x0000000000000000000000000000000000000000000000000000000000000001"
          ],
          "data": "0x",
          "blockHash": "0x42a0c12f1a2e866071969eeaa20fc7ccd8d6b1d8bd7f8aecb4cb119ea24497c6",
          "blockNumber": "0x40104a",
          "transactionHash": "0x2a9ca034fcb1b5a3085e1946ba60eb224a58f6ed573d7454ee1adedf924eeee4",
          "transactionIndex": "0x0",
          "logIndex": "0x0",
          "transactionLogIndex": "0x0",
          "removed": false
        }
      ],
      "status": "0x1",
      "logsBloom": "0x00000000000000000000000000000000000000000000000000000000000000000000000000000000000010000000000000000000000000000000000000060000000000000000000000000008000000000100000000041000000000000000000000000000020000000000000000000800000000000000000000080010000000000000000000000000000000000000000000000000000000000000000000000000000000000000000000000000000000200000000000000000000000000000000000000002000000000000000000000000000000000000000000000000000060000000000000000000000000000000000000000000000000000000000000000000",
      "type": "0x2",
      "effectiveGasPrice": "0xb2d05e07"
    },
    {
      "transactionHash": "0xf2687c3b1c6a9676f8f65bd5a63769acde4450ff692b3696549606a37244c4b1",
      "transactionIndex": "0x0",
      "blockHash": "0xaf278be1b7283db0d289cfa44d694f013a9b5bcfcef832c9828feda50d4279b3",
      "blockNumber": "0x40104b",
      "from": "0xf39Fd6e51aad88F6F4ce6aB8827279cffFb92266",
      "to": "0xA7c59f010700930003b33aB25a7a0679C860f29c",
      "cumulativeGasUsed": "0x242cd",
      "gasUsed": "0x242cd",
      "contractAddress": null,
      "logs": [
        {
          "address": "0xA7c59f010700930003b33aB25a7a0679C860f29c",
          "topics": [
            "0xddf252ad1be2c89b69c2b068fc378daa952ba7f163c4a11628f55a4df523b3ef",
            "0x0000000000000000000000000000000000000000000000000000000000000000",
            "0x0000000000000000000000008eb0eb887b33b57e7a053d26eab4582c8c8875c7",
            "0x0000000000000000000000000000000000000000000000000000000000000003"
          ],
          "data": "0x",
          "blockHash": "0xaf278be1b7283db0d289cfa44d694f013a9b5bcfcef832c9828feda50d4279b3",
          "blockNumber": "0x40104b",
          "transactionHash": "0xf2687c3b1c6a9676f8f65bd5a63769acde4450ff692b3696549606a37244c4b1",
          "transactionIndex": "0x0",
          "logIndex": "0x0",
          "transactionLogIndex": "0x0",
          "removed": false
        }
      ],
      "status": "0x1",
      "logsBloom": "0x00000000000000000000000000000000000000000000000000000000000000000000000000000000000010000000000000000000020000000000000000020000000000000000000000000008000000000100000000001000000000000000000000000000020000000000000000000800000000000000000000080010000000000000000000000000000000000000000000000000000000000000000000000000000000000000000000000000000000200000000000800000000000000000400000000002000000000000000000000000000000000000000000000000000020000000000000000000000000000000000000000000000000000000000000000000",
      "type": "0x2",
      "effectiveGasPrice": "0xb2d05e07"
    },
    {
      "transactionHash": "0x147a1ee6bcf33ee64e0f17b2d07e98bcf2d6affb601ea1f0116dfccfe052f38d",
      "transactionIndex": "0x0",
      "blockHash": "0x071838c1b21db470ee1044875a64d72c0e1a07f9f4f20d5ed21988def81ff9fe",
      "blockNumber": "0x40104c",
      "from": "0xf39Fd6e51aad88F6F4ce6aB8827279cffFb92266",
      "to": "0xA7c59f010700930003b33aB25a7a0679C860f29c",
      "cumulativeGasUsed": "0x242cd",
      "gasUsed": "0x242cd",
      "contractAddress": null,
      "logs": [
        {
          "address": "0xA7c59f010700930003b33aB25a7a0679C860f29c",
          "topics": [
            "0xddf252ad1be2c89b69c2b068fc378daa952ba7f163c4a11628f55a4df523b3ef",
            "0x0000000000000000000000000000000000000000000000000000000000000000",
            "0x0000000000000000000000008eb0eb887b33b57e7a053d26eab4582c8c8875c7",
            "0x0000000000000000000000000000000000000000000000000000000000000005"
          ],
          "data": "0x",
          "blockHash": "0x071838c1b21db470ee1044875a64d72c0e1a07f9f4f20d5ed21988def81ff9fe",
          "blockNumber": "0x40104c",
          "transactionHash": "0x147a1ee6bcf33ee64e0f17b2d07e98bcf2d6affb601ea1f0116dfccfe052f38d",
          "transactionIndex": "0x0",
          "logIndex": "0x0",
          "transactionLogIndex": "0x0",
          "removed": false
        }
      ],
      "status": "0x1",
      "logsBloom": "0x00000000000000000000000000000000000000000000000000000000000000000000000000000000000010000000000000000000000000000000000000020000000010000000000000000008000000000100000000001000000000000000000000000000020000000000000000000800000000000000000000080010000000000000000000000000000000000000001000000800000000000000000000000000000000000000000000000000000000200000000000000000000000000000000000000002000000000000000000000000000000000000000000000000000020000000000000000000000000000000000000000000000000000000000000000000",
      "type": "0x2",
      "effectiveGasPrice": "0xb2d05e07"
    },
    {
      "transactionHash": "0xeb568c3e36adc92e1a125de1fe256eaa8ff693d0731f496b497471511ddbffbf",
      "transactionIndex": "0x0",
      "blockHash": "0x17655b5ad1c99253af9672762acf757becb874cc4e3c773d96ff98c9fc9342da",
      "blockNumber": "0x40104d",
      "from": "0xf39Fd6e51aad88F6F4ce6aB8827279cffFb92266",
      "to": "0x22753E4264FDDc6181dc7cce468904A80a363E44",
      "cumulativeGasUsed": "0x11434",
      "gasUsed": "0x11434",
      "contractAddress": null,
      "logs": [
        {
          "address": "0x22753E4264FDDc6181dc7cce468904A80a363E44",
          "topics": [
            "0xddf252ad1be2c89b69c2b068fc378daa952ba7f163c4a11628f55a4df523b3ef",
            "0x0000000000000000000000000000000000000000000000000000000000000000",
            "0x000000000000000000000000faaddc93baf78e89dcf37ba67943e1be8f37bb8c"
          ],
          "data": "0x0000000000000000000000000000000000000000000000056bc75e2d63100000",
          "blockHash": "0x17655b5ad1c99253af9672762acf757becb874cc4e3c773d96ff98c9fc9342da",
          "blockNumber": "0x40104d",
          "transactionHash": "0xeb568c3e36adc92e1a125de1fe256eaa8ff693d0731f496b497471511ddbffbf",
          "transactionIndex": "0x0",
          "logIndex": "0x0",
          "transactionLogIndex": "0x0",
          "removed": false
        }
      ],
      "status": "0x1",
      "logsBloom": "0x00000000000000000000000000000000001000000000000000000000000000000000000000000000000000000040000000000000000000000000000000000000000000000000000000000008000000000200000000000000000000000000000000000000020000000000000000000800000000000000000000000010000000000000000000000000000000000000000000000000000000000000000000000000000100000000000000000000000000000000000000000000000000000000000000000006000000000000000000000000000000000000000000000000000020000000000000000000000000000000000000000800000000000000000000000000",
      "type": "0x2",
      "effectiveGasPrice": "0xb2d05e07"
    },
    {
      "transactionHash": "0x886e097e0e163c9cd0a74447a8562299cc2679d19077d4e6e250a2709d949807",
      "transactionIndex": "0x0",
      "blockHash": "0xef71a09e57ed90aa160503ffdea85f9bc3b038bd6d3c5a50ba5bb71c52bd3d52",
      "blockNumber": "0x40104e",
      "from": "0xf39Fd6e51aad88F6F4ce6aB8827279cffFb92266",
      "to": "0xfaAddC93baf78e89DCf37bA67943E1bE8F37Bb8c",
      "cumulativeGasUsed": "0xbdd1",
      "gasUsed": "0xbdd1",
      "contractAddress": null,
      "logs": [],
      "status": "0x1",
      "logsBloom": "0x00000000000000000000000000000000000000000000000000000000000000000000000000000000000000000000000000000000000000000000000000000000000000000000000000000000000000000000000000000000000000000000000000000000000000000000000000000000000000000000000000000000000000000000000000000000000000000000000000000000000000000000000000000000000000000000000000000000000000000000000000000000000000000000000000000000000000000000000000000000000000000000000000000000000000000000000000000000000000000000000000000000000000000000000000000000",
      "type": "0x2",
      "effectiveGasPrice": "0xb2d05e07"
    },
    {
      "transactionHash": "0x00b28ac46b3eb197ad911edad9d1aa97e2f61fd156024bf4fdd913468e642005",
      "transactionIndex": "0x0",
      "blockHash": "0x2f05bf8e5c1b5bdd734bf34d51a097f538dd791bbf3477ccd356918e7d84fd35",
      "blockNumber": "0x40104f",
      "from": "0xf39Fd6e51aad88F6F4ce6aB8827279cffFb92266",
      "to": "0x8EB0Eb887B33b57e7A053D26eab4582C8C8875c7",
      "cumulativeGasUsed": "0x5208",
      "gasUsed": "0x5208",
      "contractAddress": null,
      "logs": [],
      "status": "0x1",
      "logsBloom": "0x00000000000000000000000000000000000000000000000000000000000000000000000000000000000000000000000000000000000000000000000000000000000000000000000000000000000000000000000000000000000000000000000000000000000000000000000000000000000000000000000000000000000000000000000000000000000000000000000000000000000000000000000000000000000000000000000000000000000000000000000000000000000000000000000000000000000000000000000000000000000000000000000000000000000000000000000000000000000000000000000000000000000000000000000000000000",
      "type": "0x2",
      "effectiveGasPrice": "0xb2d05e07"
    }
  ],
  "libraries": [],
  "pending": [],
  "returns": {},
  "timestamp": 1710099992,
  "chain": 59140,
  "multi": false,
  "commit": "598e9d3"
}