{
  "transactions": [
    {
      "hash": "0x2a9ca034fcb1b5a3085e1946ba60eb224a58f6ed573d7454ee1adedf924eeee4",
      "transactionType": "CALL",
      "contractName": null,
      "contractAddress": "0xA7c59f010700930003b33aB25a7a0679C860f29c",
      "function": "mint(address,uint256)",
      "arguments": [
        "0x8EB0Eb887B33b57e7A053D26eab4582C8C8875c7",
        "1"
      ],
      "transaction": {
        "type": "0x02",
        "from": "0xf39fd6e51aad88f6f4ce6ab8827279cfffb92266",
        "to": "0xa7c59f010700930003b33ab25a7a0679c860f29c",
        "gas": "0x3013f",
        "value": "0x0",
        "data": "0x40c10f190000000000000000000000008eb0eb887b33b57e7a053d26eab4582c8c8875c70000000000000000000000000000000000000000000000000000000000000001",
        "nonce": "0x74",
        "accessList": []
      },
      "additionalContracts": [],
      "isFixedGasLimit": false
    },
    {
      "hash": "0xf2687c3b1c6a9676f8f65bd5a63769acde4450ff692b3696549606a37244c4b1",
      "transactionType": "CALL",
      "contractName": null,
      "contractAddress": "0xA7c59f010700930003b33aB25a7a0679C860f29c",
      "function": "mint(address,uint256)",
      "arguments": [
        "0x8EB0Eb887B33b57e7A053D26eab4582C8C8875c7",
        "3"
      ],
      "transaction": {
        "type": "0x02",
        "from": "0xf39fd6e51aad88f6f4ce6ab8827279cfffb92266",
        "to": "0xa7c59f010700930003b33ab25a7a0679c860f29c",
        "gas": "0x31f76",
        "value": "0x0",
        "data": "0x40c10f190000000000000000000000008eb0eb887b33b57e7a053d26eab4582c8c8875c70000000000000000000000000000000000000000000000000000000000000003",
        "nonce": "0x75",
        "accessList": []
      },
      "additionalContracts": [],
      "isFixedGasLimit": false
    },
    {
      "hash": "0x147a1ee6bcf33ee64e0f17b2d07e98bcf2d6affb601ea1f0116dfccfe052f38d",
      "transactionType": "CALL",
      "contractName": null,
      "contractAddress": "0xA7c59f010700930003b33aB25a7a0679C860f29c",
      "function": "mint(address,uint256)",
      "arguments": [
        "0x8EB0Eb887B33b57e7A053D26eab4582C8C8875c7",
        "5"
      ],
      "transaction": {
        "type": "0x02",
        "from": "0xf39fd6e51aad88f6f4ce6ab8827279cfffb92266",
        "to": "0xa7c59f010700930003b33ab25a7a0679c860f29c",
        "gas": "0x31f76",
        "value": "0x0",
        "data": "0x40c10f190000000000000000000000008eb0eb887b33b57e7a053d26eab4582c8c8875c70000000000000000000000000000000000000000000000000000000000000005",
        "nonce": "0x76",
        "accessList": []
      },
      "additionalContracts": [],
      "isFixedGasLimit": false
    },
    {
      "hash": "0xeb568c3e36adc92e1a125de1fe256eaa8ff693d0731f496b497471511ddbffbf",
      "transactionType": "CALL",
      "contractName": null,
      "contractAddress": "0x22753E4264FDDc6181dc7cce468904A80a363E44",
      "function": "mint(address,uint256)",
      "arguments": [
        "0xfaAddC93baf78e89DCf37bA67943E1bE8F37Bb8c",
        "100000000000000000000"
      ],
      "transaction": {
        "type": "0x02",
        "from": "0xf39fd6e51aad88f6f4ce6ab8827279cfffb92266",
        "to": "0x22753e4264fddc6181dc7cce468904a80a363e44",
        "gas": "0x17d81",
        "value": "0x0",
        "data": "0x40c10f19000000000000000000000000faaddc93baf78e89dcf37ba67943e1be8f37bb8c0000000000000000000000000000000000000000000000056bc75e2d63100000",
        "nonce": "0x77",
        "accessList": []
      },
      "additionalContracts": [],
      "isFixedGasLimit": false
    }
  ],
  "receipts": [
    {
      "transactionHash": "0x2a9ca034fcb1b5a3085e1946ba60eb224a58f6ed573d7454ee1adedf924eeee4",
      "transactionIndex": "0x0",
      "blockHash": "0xd7925bcd48d79153f6c1403ecaeb48aeae439585c13d885400c90e5aeaebf103",
      "blockNumber": "0x400b79",
      "from": "0xf39Fd6e51aad88F6F4ce6aB8827279cffFb92266",
      "to": "0xA7c59f010700930003b33aB25a7a0679C860f29c",
      "cumulativeGasUsed": "0x22ced",
      "gasUsed": "0x22ced",
      "contractAddress": null,
      "logs": [
        {
          "address": "0xA7c59f010700930003b33aB25a7a0679C860f29c",
          "topics": [
            "0xddf252ad1be2c89b69c2b068fc378daa952ba7f163c4a11628f55a4df523b3ef",
            "0x0000000000000000000000000000000000000000000000000000000000000000",
            "0x0000000000000000000000008eb0eb887b33b57e7a053d26eab4582c8c8875c7",
            "0x0000000000000000000000000000000000000000000000000000000000000001"
          ],
          "data": "0x",
          "blockHash": "0xd7925bcd48d79153f6c1403ecaeb48aeae439585c13d885400c90e5aeaebf103",
          "blockNumber": "0x400b79",
          "transactionHash": "0x2a9ca034fcb1b5a3085e1946ba60eb224a58f6ed573d7454ee1adedf924eeee4",
          "transactionIndex": "0x0",
          "logIndex": "0x0",
          "transactionLogIndex": "0x0",
          "removed": false
        }
      ],
      "status": "0x1",
      "logsBloom": "0x00000000000000000000000000000000000000000000000000000000000000000000000000000000000010000000000000000000000000000000000000060000000000000000000000000008000000000100000000041000000000000000000000000000020000000000000000000800000000000000000000080010000000000000000000000000000000000000000000000000000000000000000000000000000000000000000000000000000000200000000000000000000000000000000000000002000000000000000000000000000000000000000000000000000060000000000000000000000000000000000000000000000000000000000000000000",
      "type": "0x2",
      "effectiveGasPrice": "0xb2d05e07"
    },
    {
      "transactionHash": "0xf2687c3b1c6a9676f8f65bd5a63769acde4450ff692b3696549606a37244c4b1",
      "transactionIndex": "0x0",
      "blockHash": "0xbc3eb2bd29e24bff1c8d2aa8a06ef0f249a6b17676fe0543c5e187fbf2300b8a",
      "blockNumber": "0x400b7a",
      "from": "0xf39Fd6e51aad88F6F4ce6aB8827279cffFb92266",
      "to": "0xA7c59f010700930003b33aB25a7a0679C860f29c",
      "cumulativeGasUsed": "0x242cd",
      "gasUsed": "0x242cd",
      "contractAddress": null,
      "logs": [
        {
          "address": "0xA7c59f010700930003b33aB25a7a0679C860f29c",
          "topics": [
            "0xddf252ad1be2c89b69c2b068fc378daa952ba7f163c4a11628f55a4df523b3ef",
            "0x0000000000000000000000000000000000000000000000000000000000000000",
            "0x0000000000000000000000008eb0eb887b33b57e7a053d26eab4582c8c8875c7",
            "0x0000000000000000000000000000000000000000000000000000000000000003"
          ],
          "data": "0x",
          "blockHash": "0xbc3eb2bd29e24bff1c8d2aa8a06ef0f249a6b17676fe0543c5e187fbf2300b8a",
          "blockNumber": "0x400b7a",
          "transactionHash": "0xf2687c3b1c6a9676f8f65bd5a63769acde4450ff692b3696549606a37244c4b1",
          "transactionIndex": "0x0",
          "logIndex": "0x0",
          "transactionLogIndex": "0x0",
          "removed": false
        }
      ],
      "status": "0x1",
      "logsBloom": "0x00000000000000000000000000000000000000000000000000000000000000000000000000000000000010000000000000000000020000000000000000020000000000000000000000000008000000000100000000001000000000000000000000000000020000000000000000000800000000000000000000080010000000000000000000000000000000000000000000000000000000000000000000000000000000000000000000000000000000200000000000800000000000000000400000000002000000000000000000000000000000000000000000000000000020000000000000000000000000000000000000000000000000000000000000000000",
      "type": "0x2",
      "effectiveGasPrice": "0xb2d05e07"
    },
    {
      "transactionHash": "0x147a1ee6bcf33ee64e0f17b2d07e98bcf2d6affb601ea1f0116dfccfe052f38d",
      "transactionIndex": "0x0",
      "blockHash": "0xe5b231689e19dee7ff3f5008026dd353b785aa46dc5aa289dfdf23d6ec626061",
      "blockNumber": "0x400b7b",
      "from": "0xf39Fd6e51aad88F6F4ce6aB8827279cffFb92266",
      "to": "0xA7c59f010700930003b33aB25a7a0679C860f29c",
      "cumulativeGasUsed": "0x242cd",
      "gasUsed": "0x242cd",
      "contractAddress": null,
      "logs": [
        {
          "address": "0xA7c59f010700930003b33aB25a7a0679C860f29c",
          "topics": [
            "0xddf252ad1be2c89b69c2b068fc378daa952ba7f163c4a11628f55a4df523b3ef",
            "0x0000000000000000000000000000000000000000000000000000000000000000",
            "0x0000000000000000000000008eb0eb887b33b57e7a053d26eab4582c8c8875c7",
            "0x0000000000000000000000000000000000000000000000000000000000000005"
          ],
          "data": "0x",
          "blockHash": "0xe5b231689e19dee7ff3f5008026dd353b785aa46dc5aa289dfdf23d6ec626061",
          "blockNumber": "0x400b7b",
          "transactionHash": "0x147a1ee6bcf33ee64e0f17b2d07e98bcf2d6affb601ea1f0116dfccfe052f38d",
          "transactionIndex": "0x0",
          "logIndex": "0x0",
          "transactionLogIndex": "0x0",
          "removed": false
        }
      ],
      "status": "0x1",
      "logsBloom": "0x00000000000000000000000000000000000000000000000000000000000000000000000000000000000010000000000000000000000000000000000000020000000010000000000000000008000000000100000000001000000000000000000000000000020000000000000000000800000000000000000000080010000000000000000000000000000000000000001000000800000000000000000000000000000000000000000000000000000000200000000000000000000000000000000000000002000000000000000000000000000000000000000000000000000020000000000000000000000000000000000000000000000000000000000000000000",
      "type": "0x2",
      "effectiveGasPrice": "0xb2d05e07"
    },
    {
      "transactionHash": "0xeb568c3e36adc92e1a125de1fe256eaa8ff693d0731f496b497471511ddbffbf",
      "transactionIndex": "0x0",
      "blockHash": "0xc071a0f69d7b5ba115bb7088822433dcc066a5e0ef551d19afb9bc4ecb5f3584",
      "blockNumber": "0x400b7c",
      "from": "0xf39Fd6e51aad88F6F4ce6aB8827279cffFb92266",
      "to": "0x22753E4264FDDc6181dc7cce468904A80a363E44",
      "cumulativeGasUsed": "0x11434",
      "gasUsed": "0x11434",
      "contractAddress": null,
      "logs": [
        {
          "address": "0x22753E4264FDDc6181dc7cce468904A80a363E44",
          "topics": [
            "0xddf252ad1be2c89b69c2b068fc378daa952ba7f163c4a11628f55a4df523b3ef",
            "0x0000000000000000000000000000000000000000000000000000000000000000",
            "0x000000000000000000000000faaddc93baf78e89dcf37ba67943e1be8f37bb8c"
          ],
          "data": "0x0000000000000000000000000000000000000000000000056bc75e2d63100000",
          "blockHash": "0xc071a0f69d7b5ba115bb7088822433dcc066a5e0ef551d19afb9bc4ecb5f3584",
          "blockNumber": "0x400b7c",
          "transactionHash": "0xeb568c3e36adc92e1a125de1fe256eaa8ff693d0731f496b497471511ddbffbf",
          "transactionIndex": "0x0",
          "logIndex": "0x0",
          "transactionLogIndex": "0x0",
          "removed": false
        }
      ],
      "status": "0x1",
      "logsBloom": "0x00000000000000000000000000000000001000000000000000000000000000000000000000000000000000000040000000000000000000000000000000000000000000000000000000000008000000000200000000000000000000000000000000000000020000000000000000000800000000000000000000000010000000000000000000000000000000000000000000000000000000000000000000000000000100000000000000000000000000000000000000000000000000000000000000000006000000000000000000000000000000000000000000000000000020000000000000000000000000000000000000000800000000000000000000000000",
      "type": "0x2",
      "effectiveGasPrice": "0xb2d05e07"
    }
  ],
  "libraries": [],
  "pending": [],
  "returns": {},
  "timestamp": 1710092799,
  "chain": 59140,
  "multi": false,
  "commit": "598e9d3"
}