{
  "transactions": [
    {
      "hash": "0x2d25e19cf73e666c9c1d70733ad5702fc9825ea2ae2af0198b0557992d4e73d5",
      "transactionType": "CALL",
      "contractName": null,
      "contractAddress": "0xA7c59f010700930003b33aB25a7a0679C860f29c",
      "function": "mint(address,uint256)",
      "arguments": [
        "0x8EB0Eb887B33b57e7A053D26eab4582C8C8875c7",
        "2"
      ],
      "transaction": {
        "type": "0x02",
        "from": "0xf39fd6e51aad88f6f4ce6ab8827279cfffb92266",
        "to": "0xa7c59f010700930003b33ab25a7a0679c860f29c",
        "gas": "0x31f76",
        "value": "0x0",
        "data": "0x40c10f190000000000000000000000008eb0eb887b33b57e7a053d26eab4582c8c8875c70000000000000000000000000000000000000000000000000000000000000002",
        "nonce": "0x76",
        "accessList": []
      },
      "additionalContracts": [],
      "isFixedGasLimit": false
    },
    {
      "hash": "0x8a8c5735a93fc543044836c340b08ed0cab9518662da66859845b78d11dbeb72",
      "transactionType": "CALL",
      "contractName": null,
      "contractAddress": "0xA7c59f010700930003b33aB25a7a0679C860f29c",
      "function": "mint(address,uint256)",
      "arguments": [
        "0x8EB0Eb887B33b57e7A053D26eab4582C8C8875c7",
        "5"
      ],
      "transaction": {
        "type": "0x02",
        "from": "0xf39fd6e51aad88f6f4ce6ab8827279cfffb92266",
        "to": "0xa7c59f010700930003b33ab25a7a0679c860f29c",
        "gas": "0x31f76",
        "value": "0x0",
        "data": "0x40c10f190000000000000000000000008eb0eb887b33b57e7a053d26eab4582c8c8875c70000000000000000000000000000000000000000000000000000000000000005",
        "nonce": "0x77",
        "accessList": []
      },
      "additionalContracts": [],
      "isFixedGasLimit": false
    }
  ],
  "receipts": [
    {
      "transactionHash": "0x2d25e19cf73e666c9c1d70733ad5702fc9825ea2ae2af0198b0557992d4e73d5",
      "transactionIndex": "0x0",
      "blockHash": "0x12f92e7622013251aee14bf914e9c5c4c2dda21ee5e7b713cd0e810c9705fb76",
      "blockNumber": "0x400812",
      "from": "0xf39Fd6e51aad88F6F4ce6aB8827279cffFb92266",
      "to": "0xA7c59f010700930003b33aB25a7a0679C860f29c",
      "cumulativeGasUsed": "0x242cd",
      "gasUsed": "0x242cd",
      "contractAddress": null,
      "logs": [
        {
          "address": "0xA7c59f010700930003b33aB25a7a0679C860f29c",
          "topics": [
            "0xddf252ad1be2c89b69c2b068fc378daa952ba7f163c4a11628f55a4df523b3ef",
            "0x0000000000000000000000000000000000000000000000000000000000000000",
            "0x0000000000000000000000008eb0eb887b33b57e7a053d26eab4582c8c8875c7",
            "0x0000000000000000000000000000000000000000000000000000000000000002"
          ],
          "data": "0x",
          "blockHash": "0x12f92e7622013251aee14bf914e9c5c4c2dda21ee5e7b713cd0e810c9705fb76",
          "blockNumber": "0x400812",
          "transactionHash": "0x2d25e19cf73e666c9c1d70733ad5702fc9825ea2ae2af0198b0557992d4e73d5",
          "transactionIndex": "0x0",
          "logIndex": "0x0",
          "transactionLogIndex": "0x0",
          "removed": false
        }
      ],
      "status": "0x1",
      "logsBloom": "0x04000000000000000000000000000000000000000000000000000000000000000000000000000000000010000000000000000000000000000000000000020000000000000000000000000008000000000100000000001000000000000000000000000000020000000000000000000800000000000000000000080010000000000000000000000000000000000000000000000000000000000000000000000000000000000000000000000100000000200000000000000000000000000000000000000002000000000000000000000000000000000000000000000000000020000000000000000000000000000000000000000000008000000000000000000000",
      "type": "0x2",
      "effectiveGasPrice": "0xb2d05e07"
    },
    {
      "transactionHash": "0x8a8c5735a93fc543044836c340b08ed0cab9518662da66859845b78d11dbeb72",
      "transactionIndex": "0x0",
      "blockHash": "0xad3178dceac349dfdec6da6c19c656c860485fded11ee802c94912e3d6654422",
      "blockNumber": "0x400813",
      "from": "0xf39Fd6e51aad88F6F4ce6aB8827279cffFb92266",
      "to": "0xA7c59f010700930003b33aB25a7a0679C860f29c",
      "cumulativeGasUsed": "0x242cd",
      "gasUsed": "0x242cd",
      "contractAddress": null,
      "logs": [
        {
          "address": "0xA7c59f010700930003b33aB25a7a0679C860f29c",
          "topics": [
            "0xddf252ad1be2c89b69c2b068fc378daa952ba7f163c4a11628f55a4df523b3ef",
            "0x0000000000000000000000000000000000000000000000000000000000000000",
            "0x0000000000000000000000008eb0eb887b33b57e7a053d26eab4582c8c8875c7",
            "0x0000000000000000000000000000000000000000000000000000000000000005"
          ],
          "data": "0x",
          "blockHash": "0xad3178dceac349dfdec6da6c19c656c860485fded11ee802c94912e3d6654422",
          "blockNumber": "0x400813",
          "transactionHash": "0x8a8c5735a93fc543044836c340b08ed0cab9518662da66859845b78d11dbeb72",
          "transactionIndex": "0x0",
          "logIndex": "0x0",
          "transactionLogIndex": "0x0",
          "removed": false
        }
      ],
      "status": "0x1",
      "logsBloom": "0x00000000000000000000000000000000000000000000000000000000000000000000000000000000000010000000000000000000000000000000000000020000000010000000000000000008000000000100000000001000000000000000000000000000020000000000000000000800000000000000000000080010000000000000000000000000000000000000001000000800000000000000000000000000000000000000000000000000000000200000000000000000000000000000000000000002000000000000000000000000000000000000000000000000000020000000000000000000000000000000000000000000000000000000000000000000",
      "type": "0x2",
      "effectiveGasPrice": "0xb2d05e07"
    }
  ],
  "libraries": [],
  "pending": [],
  "returns": {},
  "timestamp": 1710091382,
  "chain": 59140,
  "multi": false,
  "commit": "598e9d3"
}