{
  "transactions": [
    {
      "hash": "0x2a9ca034fcb1b5a3085e1946ba60eb224a58f6ed573d7454ee1adedf924eeee4",
      "transactionType": "CALL",
      "contractName": null,
      "contractAddress": "0xA7c59f010700930003b33aB25a7a0679C860f29c",
      "function": "mint(address,uint256)",
      "arguments": [
        "0x8EB0Eb887B33b57e7A053D26eab4582C8C8875c7",
        "1"
      ],
      "transaction": {
        "type": "0x02",
        "from": "0xf39fd6e51aad88f6f4ce6ab8827279cfffb92266",
        "to": "0xa7c59f010700930003b33ab25a7a0679c860f29c",
        "gas": "0x3013f",
        "value": "0x0",
        "data": "0x40c10f190000000000000000000000008eb0eb887b33b57e7a053d26eab4582c8c8875c70000000000000000000000000000000000000000000000000000000000000001",
        "nonce": "0x74",
        "accessList": []
      },
      "additionalContracts": [],
      "isFixedGasLimit": false
    },
    {
      "hash": "0x5fc16df83f2b509e1c06a6d29d03c113808553d8d4ea09c9389bff7f6f4eba50",
      "transactionType": "CALL",
      "contractName": null,
      "contractAddress": "0x22753E4264FDDc6181dc7cce468904A80a363E44",
      "function": "mint(address,uint256)",
      "arguments": [
        "0x3f2e9F3b8d3C5D3c4B3d3E7d3c3d3d3d3D3d3D3d",
        "100000000000000000000"
      ],
      "transaction": {
        "type": "0x02",
        "from": "0xf39fd6e51aad88f6f4ce6ab8827279cfffb92266",
        "to": "0x22753e4264fddc6181dc7cce468904a80a363e44",
        "gas": "0x17d81",
        "value": "0x0",
        "data": "0x40c10f190000000000000000000000003f2e9f3b8d3c5d3c4b3d3e7d3c3d3d3d3d3d3d3d0000000000000000000000000000000000000000000000056bc75e2d63100000",
        "nonce": "0x75",
        "accessList": []
      },
      "additionalContracts": [],
      "isFixedGasLimit": false
    }
  ],
  "receipts": [
    {
      "transactionHash": "0x2a9ca034fcb1b5a3085e1946ba60eb224a58f6ed573d7454ee1adedf924eeee4",
      "transactionIndex": "0x0",
      "blockHash": "0x43ee93e426015fd259606eb50d6c60147b7cf8e4da04ad081c5208f8d2b57fc4",
      "blockNumber": "0x3fd107",
      "from": "0xf39Fd6e51aad88F6F4ce6aB8827279cffFb92266",
      "to": "0xA7c59f010700930003b33aB25a7a0679C860f29c",
      "cumulativeGasUsed": "0x22ced",
      "gasUsed": "0x22ced",
      "contractAddress": null,
      "logs": [
        {
          "address": "0xA7c59f010700930003b33aB25a7a0679C860f29c",
          "topics": [
            "0xddf252ad1be2c89b69c2b068fc378daa952ba7f163c4a11628f55a4df523b3ef",
            "0x0000000000000000000000000000000000000000000000000000000000000000",
            "0x0000000000000000000000008eb0eb887b33b57e7a053d26eab4582c8c8875c7",
            "0x0000000000000000000000000000000000000000000000000000000000000001"
          ],
          "data": "0x",
          "blockHash": "0x43ee93e426015fd259606eb50d6c60147b7cf8e4da04ad081c5208f8d2b57fc4",
          "blockNumber": "0x3fd107",
          "transactionHash": "0x2a9ca034fcb1b5a3085e1946ba60eb224a58f6ed573d7454ee1adedf924eeee4",
          "transactionIndex": "0x0",
          "logIndex": "0x0",
          "transactionLogIndex": "0x0",
          "removed": false
        }
      ],
      "status": "0x1",
      "logsBloom": "0x00000000000000000000000000000000000000000000000000000000000000000000000000000000000010000000000000000000000000000000000000060000000000000000000000000008000000000100000000041000000000000000000000000000020000000000000000000800000000000000000000080010000000000000000000000000000000000000000000000000000000000000000000000000000000000000000000000000000000200000000000000000000000000000000000000002000000000000000000000000000000000000000000000000000060000000000000000000000000000000000000000000000000000000000000000000",
      "type": "0x2",
      "effectiveGasPrice": "0xb2d05e07"
    },
    {
      "transactionHash": "0x5fc16df83f2b509e1c06a6d29d03c113808553d8d4ea09c9389bff7f6f4eba50",
      "transactionIndex": "0x0",
      "blockHash": "0x2afd4a020c590e4f1f6029223234561b7a07fe275dce16ddc229e6d376bff80a",
      "blockNumber": "0x3fd108",
      "from": "0xf39Fd6e51aad88F6F4ce6aB8827279cffFb92266",
      "to": "0x22753E4264FDDc6181dc7cce468904A80a363E44",
      "cumulativeGasUsed": "0x11434",
      "gasUsed": "0x11434",
      "contractAddress": null,
      "logs": [
        {
          "address": "0x22753E4264FDDc6181dc7cce468904A80a363E44",
          "topics": [
            "0xddf252ad1be2c89b69c2b068fc378daa952ba7f163c4a11628f55a4df523b3ef",
            "0x0000000000000000000000000000000000000000000000000000000000000000",
            "0x0000000000000000000000003f2e9f3b8d3c5d3c4b3d3e7d3c3d3d3d3d3d3d3d"
          ],
          "data": "0x0000000000000000000000000000000000000000000000056bc75e2d63100000",
          "blockHash": "0x2afd4a020c590e4f1f6029223234561b7a07fe275dce16ddc229e6d376bff80a",
          "blockNumber": "0x3fd108",
          "transactionHash": "0x5fc16df83f2b509e1c06a6d29d03c113808553d8d4ea09c9389bff7f6f4eba50",
          "transactionIndex": "0x0",
          "logIndex": "0x0",
          "transactionLogIndex": "0x0",
          "removed": false
        }
      ],
      "status": "0x1",
      "logsBloom": "0x00000000000000000000000000000000001000000000000000000000000000000000000000000000000000000040000000000000000000000000000000800000000020000000000000000008000000000000000000000000000000000000000000000000020000000000000000000800000000000000000000000010000000000000000000000000000000000000000000000000000000000000000000000000000000000000000000000000000000000000000000000000000000000000000800000002000000000000000000000000000000000000000000000000000020000000000000000000000000000000000000000800000000000000000000000000",
      "type": "0x2",
      "effectiveGasPrice": "0xb2d05e07"
    }
  ],
  "libraries": [],
  "pending": [],
  "returns": {},
  "timestamp": 1710032182,
  "chain": 59140,
  "multi": false,
  "commit": "598e9d3"
}